:100000000C9499030C94B6030C94B6030C94B603A9
:100010000C94B6030C94B6030C94B6030C94B6037C
:100020000C94B6030C94B6030C94BC2D0C948F2E38
:100030000C94F7270C94B6030C94B6030C94B603F7
:100040000C94B6030C94B6030C94B6030C94B6034C
:100050000C94B6030C948F280C94B6030C94B6033E
:100060000C94B6030C94B6030C94B6030C94B6032C
:100070000C94B6030C94B6030C94B6030C94B6031C
:100080000C94B6030C94B6030C94B6030C94B6030C
:100090000C94B6030C94B6030C94B6030C94B603FC
:1000A0000C94B6030C94B6030C94B6032B00140006
:1000B0001A000800150017005200E00004001600A6
:1000C000070009000A005000E1001D001B000600A7
:1000D000190005005200E000E300E200E2000151D7
:1000E0002C00CF5C000000000000000000000000B9
:1000F00051001C0018000C00120013002A004F00D1
:100100000B000D000E000F003300340051001100F1
:100110001000360037003800280050002C00025133
:10012000E600E600E700E400D55C00000000000007
:100130000000000000004F0001000100010001006C
:1001400001000100010001000100010001000100A7
:100150000100010001000100010001000100010097
:100160000100010001000100010001000100010087
:10017000000000000000000000000000010001007D
:100180000100010001000100010001000100010067
:100190000100010001000100010001000100010057
:1001A0000100010001000100010001000100010047
:1001B000010001000100000000000000000000003C
:1001C0000000010001000100010001000100010028
:1001D0000100010001000100010001000100010017
:1001E0000100010001000100010001000100010007
:1001F00001000100010001000100010000000000F9
:1002000000000000000000000100010001000100EA
:1002100001000100010001000100010001000100D6
:1002200001000100010001000100010001000100C6
:1002300001000100010001000100010001000100B6
:1002400001000000000000000000000000000100AC
:100250000100010001000100010001000100010096
:100260000100010001000100010001000100010086
:100270000100010001000100010001000100010076
:10028000010001000100010000000000000000006A
:100290000000000001000100010001000100010058
:1002A0000100010001000100010001000100010046
:1002B0000100010001000100010001000100010036
:1002C0000100010001000100010001000100000027
:1002D0000000000000000000000001001E0F0500EB
:1002E000047F3F1F643214643214783C1E1E140ACB
:1002F000052223252628292A2C2D2F303233353666
:10030000383A3B3D3E4042434547494A4C4E5051A6
:10031000535557595A5C5E6062646668696B6D6FCD
:1003200071737577797B7D7F81838587898A8C8ED0
:1003300090929496989A9C9E9FA1A3A5A7A8AAACD8
:10034000AEAFB1B3B4B6B8B9BBBCBEBFC1C2C3C512
:10035000C6C7C9CACBCCCDCED0D1D2D2D3D4D5D6B4
:10036000D7D7D8D9D9DADADBDBDBDCDCDCDCDCDDE7
:10037000DDDDDDDCDCDCDCDCDBDBDBDADAD9D9D8CB
:10038000D7D7D6D5D4D3D2D2D1D0CECDCCCBCAC963
:10039000C7C6C5C3C2C1BFBEBCBBB9B8B6B4B3B192
:1003A000AFAEACAAA8A7A5A3A19F9E9C9A9896942D
:1003B00092908E8C8A89878583817F7D7B79777502
:1003C00073716F6D6B6968666462605E5C5A5957E1
:1003D000555351504E4C4A4947454342403E3D3BA0
:1003E0003A3836353332302F2D2C2A29282625232A
:1003F00022FFAA7F554017161514131211100F0E65
:100400000D0C0B0A09080706050401020300000190
:1004100001010101010101010202020202020202C4
:100420000203030303030303030404040404040496
:10043000050505050506060606060707070707085A
:10044000080808090909090A0A0A0B0B0B0C0C0C0D
:100450000D0D0D0E0E0E0F0F0F10101111111212A7
:1004600013131414151516161717181819191A1A24
:100470001B1B1C1D1D1E1E1F202021222223242485
:10048000252626272829292A2B2C2D2D2E2F3031C1
:100490003232333435363738393A3B3C3D3E3F40D3
:1004A0004142434445464748494A4C4D4E4F5051BE
:1004B0005354555658595A5B5D5E5F616264656678
:1004C00068696B6C6D6F7072737577787A7B7D7EFF
:1004D0008082838587888A8C8E8F91939596989A4F
:1004E0009C9EA0A2A3A5A7A9ABADAFB1B3B5B7BA67
:1004F000BCBEC0C2C4C6C9CBCDCFD1D4D6D8DBDD3B
:10050000DFE2E4E7E9EBEEF0F3F5F8FAFDFF0000D7
:100510000000000000002A2B28000000000000005E
:1005200000000000000000000029000000002C1E58
:100530003420212224342627252E362D3738271E15
:100540001F202122232425263333362E37381F043B
:1005500005060708090A0B0C0D0E0F1011121314D3
:1005600015161718191A1B1C1D2F3130232D350491
:1005700005060708090A0B0C0D0E0F1011121314B3
:1005800015161718191A1B1C1D2F3130354C000079
:10059000000000000000000000000000000000005B
:1005A000000000000000000000000000000000004B
:1005B00000007E0F00D4FFFFFFC7000000780C038F
:1005C00052006F0053006F005200000016035400E9
:1005D00061006B0061006D006500670061006E00E6
:1005E000650000000403090409025B00030100A088
:1005F000C8090400000103010100092111010001E3
:1006000022400007058103080001090401000203DC
:1006100000000009211101000122220007058203C8
:100620002000010705030320000109040200010363
:10063000000000092111010001227B00070584034D
:100640002000011201000200000008EDFE26080152
:1006500000010200010660FF0961A10109621500A5
:1006600026FF009520750881020963150026FF000A
:10067000952075089102C005010902A101850209B2
:1006800001A1000509190129081500250195087522
:100690000181020501093009311581257F95027517
:1006A00008810609381581257F95017508810605A1
:1006B0000C0A38021581257F950175088106C0C096
:1006C00005010980A101850319012AB7001501263A
:1006D000B700950175108100C0050C0901A10185C5
:1006E0000419012AA002150126A0029501751081A6
:1006F00000C005010906A101050719E029E7150059
:10070000250195087501810295017508810105078C
:10071000190029FF150026FF0095067508810005C0
:100720000819012905950575019102950175039137
:1007300001C011241FBECFEFDAE0DEBFCDBF11E054
:10074000A0E0B1E0E4ECF4E602C005900D92AE3E0C
:10075000B107D9F723E0AEEEB1E001C01D92A23A95
:10076000B207E1F70E9428140C94F9310C940000B0
:10077000A0E0B0E0EEEBF3E00C94E630E9E3F1E06A
:1007800023E431E0EF0141E050E08991A82FA295E8
:10079000AF70B0E091966C9191978F706A0102C032
:1007A000CC0CDD1C8A95E2F7C6019C2D9095962312
:1007B00091969C93919792969C919297892B929661
:1007C0008C932C173D0709F7C2E3D1E049E351E0D0
:1007D000BE0101E010E0DB018D91BD01A82FA295C3
:1007E000AF70B0E09196FC9091978F70680102C055
:1007F000CC0CDD1C8A95E2F7C6019C2D90959F21BB
:1008000091969C93919792969C919297892B929610
:100810008C9346175707F9F661E070E08991A82F8D
:10082000A295AF70B0E091961C9191978F707B016B
:1008300002C0EE0CFF1C8A95E2F7C7019E2D909531
:10084000912391969C93919792969C919297892B44
:1008500092968C934C175D0709F761E070E08191E7
:10086000A82FA295AF70B0E091964C9191978F70A0
:100870008B0102C0000F111F8A95E2F7C801902F6B
:100880009095942391969C93919792969C91929790
:10089000892B92968C932E173F0709F7CDB7DEB7B9
:1008A000E8E00C940231A5E0B0E0E9E5F4E00C9456
:1008B000DC309C018C010B5F1F4F79E3E72E71E068
:1008C000F72EAC0180E0902FB12E22242394312CFE
:1008D000DA014D90AD01FD011292FD83EC83D70149
:1008E0006D917D01E62FE295EF70F0E071A16F70E0
:1008F000410101C0880C6A95EAF7672F682961A356
:1009000062A1A82CA0946A2162A3B0EABA95F1F77B
:1009100062E3662E61E0762E630160E070E0D6014E
:100920005D906D01B52DB295BF70B05EAB2FB0E09C
:10093000AC91AA83AC81BD81BC91B983BA81AB2F44
:10094000B0E0BB83AA83A52DAF705A2EAA81BB81CC
:1009500002C0B595A7955A94E2F7BB83AA83A0FD80
:1009600093C0B22D062E01C0BB0F0A94EAF7BA83DA
:100970005A80A9815A2AAC81BD815C926F5F7F4FFA
:100980006730710561F661A1A622A1A262A1682962
:1009900062A361E07C91741101C060E0862B401776
:1009A000510709F095CF40E050E061E070E0F901B7
:1009B0003A961F01D3012D913D01E22FE295EF7090
:1009C000F0E0A1A12F707B0102C0EE0CFF1C2A9564
:1009D000E2F79701AE29A1A3A2A1DE2CD094AD210C
:1009E000A2A300EA0A95F1F7DB01042E01C0AA0FC9
:1009F0000A94EAF78A2E8094CA2E9C83BD82A9E3CA
:100A0000B1E0BB83AA83912CAC81BD81AD90BD8345
:100A1000AC83AA81BB815D90BB83AA83E52CE29461
:100A20003FE0E322B0E2EB0EF12CD701EC90F12C89
:100A3000B52DBF7002C0F594E794BA95E2F75A2C31
:100A4000E0FC24C05C28EC80FD8001E0E01AF108A5
:100A5000D7015C92A51411F099249394EC80FD8049
:100A60002E143F0489F631A1D322D1A232A1232B27
:100A700022A389294F5F5F4F4730510509F09ACF74
:100A80002596E2E10C94F8301A8272CF5820DBCF21
:100A90000F93CF93C82F0E94C70604E020E04FEFCA
:100AA000823081F06FEF833091F0813071F48AE60B
:100AB0000E94471A64E184E00E944E178C2FCF9168
:100AC0000F91089560E080E0F3CF8FEBF1CF84E2E7
:100AD000EFCF9C01FB01233C8CE5380729F0213B3B
:100AE0003D45A9F081E008958281882371F08091CD
:100AF0002C030E94CF1D0E94BB1D8091440386954C
:100B000090E090932D0380932C0380E008958281E0
:100B10008823D9F30E94BC170E94D31DEECFAAE010
:100B2000B0E0E5E9F5E00C94EA30811125C012E06F
:100B3000611101C014E006E00E831F8381E0888705
:100B40000E9457288160782F4E815F816885892FA8
:100B50000E940E0709831A831B820E945728816016
:100B6000782F49815A816B81892F0E940E0781E07D
:100B70002A96E4E00C9406318130E9F617E0611121
:100B8000DACF19E0D8CF84E0089581E008950E947B
:100B90006905089508950E94CA050895A5E0B0E08A
:100BA000E4EDF5E00C94EB3049835A833091F50184
:100BB00089819A81311119C0662399F0222389F025
:100BC0000E94EC0B182F682F89819A810E94C80B14
:100BD00069817A81812F0E9450252596E3E00C944B
:100BE00007310E94DA0B182FF3CF0E94EC0B6981BA
:100BF0007A81F1CFFC01262F40815181628173817E
:100C000084810E94CE05089581E00895CF93DF93FB
:100C1000D82FC92F60E00E94FA056D2F7C2F0E940B
:100C2000CB05DF91CF910895E1E0F0E0DF0102C054
:100C3000AA0FBB1F6A95E2F7BD01DF0102C0AA0F30
:100C4000BB1F4A95E2F76A2B01C0EE0F2A95EAF71F
:100C5000962F9823961302C08E2B0895E0958E232D
:100C60000895242F462F682F809111020E941406A8
:100C70000E94220B08950E94A31308950E94A713B7
:100C8000089508950E94B50A0E9441062FEF84E35B
:100C90009CE0215080409040E1F700C000000895A2
:100CA0000E9442060E94B32808950E9442060E94B4
:100CB000C42808950F931F93CF93DF938C0161E0B5
:100CC0000E94FA05EC01B8010E940120882309F472
:100CD00042C0B801CE010E94C7058823E1F1B801E6
:100CE000CE010E94A3268823B1F1B801CE010E9453
:100CF0009721882381F1B801CE010E94092688231B
:100D000051F1B801CE010E94E21E882321F1F801C1
:100D10008281882381F0CB35FDE5DF0759F178F436
:100D2000CE3DECE5DE07E9F0CA35FDE5DF07F9F079
:100D3000C115DC4571F0C8010E94C5050DC0CC3558
:100D4000EDE5DE0789F0C73ADD45A9F70E945506B3
:100D500002C00E94500680E0DF91CF911F910F9159
:100D600008950E94AE10F2CF0E94E80FE4CF0E94D7
:100D7000F20FE1CF0E94F60FDECF0E94D4270E942F
:100D8000EC0608950E94F0060E94D9270895982F36
:100D900082958F70882311F0982F84E0292F269553
:100DA0002695222311F08E5F922F969591118F5FD9
:100DB000089508950E94D906089581E008950E943B
:100DC000DD0608950895CF93C82F0E94DA068C2F70
:100DD0000E94DF06CF91089580E00E94E306089507
:100DE0000E9400270E94E3060895CF930E940027E7
:100DF000C82F8091F0018C1779F0C093F0010E9408
:100E000063286093F1017093F2018093F301909352
:100E1000F4018C2F0E94E306CF910895ABE0B0E07F
:100E2000E4E1F7E00C94E830142F4F83052F588746
:100E300069877A878B87EA84FB8461110E94310F6E
:100E40001E8285E0FE013796DE01119601900D921B
:100E50008A95E1F7E114F10461F449815A816B81CB
:100E60007C818D819E810E94570E2B96E6E00C942A
:100E7000043110231F3F89F3CE0101960E9404061E
:100E80008111EBCFF2CFFC01808191810E94150C82
:100E90000895CF93C82F8823C9F08238C9F40E94DF
:100EA000002781FD13C089E30E94E60E0E94520FC5
:100EB0002FEF37EE83E0215030408040E1F700C053
:100EC000000089E30E94EE0E0E94520FCF91089518
:100ED0008338A1F40E94002780FDF8CF83E50E94AB
:100EE000E60E0E94520F9FEF21EE34E09150204019
:100EF0003040E1F700C0000083E5E4CF8438A1F47E
:100F00000E94002782FDE2CF87E40E94E60E0E9445
:100F1000520F8FEF91EE24E0815090402040E1F796
:100F200000C0000087E4CECF8CEF8C0F813A90F4A4
:100F30006C2F80910401909105010E946427882301
:100F400029F08C2F0E94EE0E0E94520F8C2F0E94CF
:100F5000E60EBACF80E28C0F883048F4C77081E08B
:100F600001C0880FCA95EAF70E94120FADCF8BE53A
:100F70008C0F833038F42C2F2452330BC9010E947C
:100F80002727A4CFE8E5EC0FE73150F4F0E0EE0FAF
:100F9000FF1FED5BFE4F808191810E943D2796CF20
:100FA000C03F08F493CF8C2F0E94B9140E947A1589
:100FB0008DCF882309F455C0823879F40E94002728
:100FC00081FF4FC089E30E94E60E0E94520F89E321
:100FD0000E94EE0E0E94520F0895833859F40E9429
:100FE000002780FF3EC083E50E94E60E0E94520F5C
:100FF00083E5EECF843859F40E94002782FF31C088
:1010000087E40E94E60E0E94520F87E4E1CF9CEF36
:10101000980F913AE8F290E2980F983050F4877068
:1010200091E001C0990F8A95EAF7892F0E94180F65
:10103000D1CF9BE5980F933028F480E090E00E9498
:101040002727089598E5980F973128F480E090E0DD
:101050000E943D270895803F20F00E9402150E94C3
:101060007A1508951F93CF93DF93182FEB010E94F9
:101070004907209739F4812F0E94D907DF91CF913A
:101080001F9108958FE99FE00197F1F700C00000DC
:101090002197EFCF60E070E0893311F460E570E0F4
:1010A0000E9432080895882321F00E94120F0E94A6
:1010B000520F0895882321F00E94180F0E94520FAA
:1010C0000895A0E0B0E0E7E6F8E00C94E6306C01AB
:1010D000D62FC72FFC011281058102950F700E9447
:1010E000070FE82E8823B9F0E12E1123A1F08C2FF1
:1010F000807F803421F080E28D0F8830B8F08091BD
:101100002F0382FF13C082E00E94B50F0E94070FD9
:1011100091E0E82EE926EC2FE295EF70C03C08F054
:1011200062C0F0E0E550FE4C0C949E30E12CF3CF11
:101130000C2F0F70C03110F00295007F112399F031
:10114000002359F080E28D0F883010F0D11107C0D4
:10115000802F0E94120F0E94520F8D2F42C0802FAD
:101160000E94230FF8CF8D2F0E94D9070023D9F1B9
:1011700080E28D0F883010F0D11104C0802F0E94C2
:10118000180F03C0802F0E94290F0E94520F2BC0FE
:10119000FC2FFF70FF2EC07FC03219F0F29480EF59
:1011A000F822DD2381F0D13009F459C0112309F46C
:1011B00061C0002309F458C0F601858180FFCDCFBE
:1011C0008F70858351C080912F0382FD2BC0112326
:1011D00011F1FF2029F08F2D0E94120F0E94520F53
:1011E00080E00E944907EE2089F00E94030F80FDF5
:1011F0000DC0F60112820E94FD0E0E94360BC60140
:101200000E94760A0E94FD0E0E94420BCDB7DEB707
:10121000E8E00C94023180E00E94D907FF2019F326
:101220008F2DADCF112381F0011106C00E94340F24
:101230008F290E945308D7CF0130C1F70E94340F85
:101240008F290E943B0FCFCF011106C00E94480F8B
:101250008F2D0E945A08C7CF013029F2F7CF1123F2
:1012600029F0063008F0BFCF8F2DE3CF053008F00E
:10127000BACFEECF002361F3D93349F4FFEF27EE65
:1012800083E0F15020408040E1F700C000008D2F46
:101290000E94D907A8CF8C2F8695869583708823C6
:1012A00069F0813009F09FCF8D2F9C2F9370111121
:1012B00002C080E090E00E943D2795CF8D2F9C2FAB
:1012C0009370111102C080E090E00E9427278BCF1D
:1012D0008D2F112329F00E94B9140E947A1583CF13
:1012E0000E940215FACF8C2F8370811134C0111126
:1012F00024C04D2F429546954770440F440F8D2FC3
:101300008F70042E01C0880F0A94EAF7D071DD2394
:1013100041F02FE030E001C0220F4A95EAF7D22FCA
:10132000D095C695C695C3708D2BC23071F0C33071
:1013300079F0C13039F00E94130B0E9400270E94FF
:10134000E30651CF0E940D0BF8CF0E94190BF5CF89
:101350000E940A0BF2CF112339F1C0FFEECF4D2FBF
:10136000429546954770440F440F8D2F8F70042E81
:1013700001C0880F0A94EAF7D071DD2341F02FE015
:1013800030E001C0220F4A95EAF7D22FD095C695DA
:10139000C695C3708D2BC23069F0C33071F0C13077
:1013A00031F00E94640BC9CF823038F2D8CF0E944E
:1013B0005E0BC3CF0E946A0BC0CF0E94220BBDCF31
:1013C000CF70112339F08C2F0E94360B8D2F0E9485
:1013D0005308B3CF8D2F0E945A088C2F0E94420BC6
:1013E000ACCFD23F31F170F4D03FB9F0D13FB1F181
:1013F000112309F451C0002309F44BC08D2F0E9422
:1014000049079BCFD33FE1F0D43F21F11111F3CF36
:10141000011150C08C2F8F71E1CF112341F00530A5
:1014200008F08BCF8C2F8F710E94520B86CF053026
:10143000F7CF8C2F8F711111D1CF0E94360B7DCF3A
:10144000112329F08C2F8F710E942D0B76CF0E94D3
:10145000290B73CF80912F0382FD06C08C2F8F71D3
:10146000112309F4BBCFE9CF112349F0CF718C2FA1
:101470000E94360B63E08C2F0E94970F5ECF81E0B5
:101480000E94B50F023008F458CF82E00E94B50FD9
:1014900054CF8C2F8F71D1CF002309F4BBCFD93318
:1014A00049F49FEFE7EEF3E09150E040F040E1F7C0
:1014B00000C000008D2F0E94D9073FCF0F931F93CC
:1014C000CF93DF93EC01688179818A810E94220C9D
:1014D0008C010E94700B0E94090BB801CE010E9482
:1014E0006108DF91CF911F910F910895CF93DF9302
:1014F000EC01988189812B813C81232BB1F08923D8
:101500008F3F99F0CE010E945A06811111C00E94AE
:10151000070F882351F08A81882339F080912F03A7
:1015200082FF03C082E00E94B50FDF91CF91089542
:10153000CE010E945E0ACE010E940606F6CF80E030
:1015400090E00E94272780E090E00E943D270E94C3
:10155000310F0E94520F0E9497150E947A1508952C
:101560000E94F60E0E949F0A08950E94200F0E947A
:10157000B00A0895282F92959F70963091F060F4EC
:10158000925F9F70923030F481E0203F79F030F428
:10159000283E30F080E008959A5FF3CF243FD1F7E2
:1015A000089581E0283EE0F3213FF9CF0895FC0142
:1015B00083819481892B61F08181908189238F3F80
:1015C00039F0808191810E94150C0E94BA0A089519
:1015D00080E00895A5E0B0E0E0EFFAE00C94EC3094
:1015E0002596E2E00C940831A6E0B0E0EAEFFAE0DC
:1015F0000C94EC302696E2E00C94083108950E9499
:10160000FE0A08950E94FF0A809312020E949F0A18
:10161000089508950E94020B089590911202892B5B
:101620000E94020B08959091120289230E94020BDE
:1016300008959091120289270E94020B08950E943A
:10164000480508950E941F0B809311020E949F0A73
:10165000089580E00E94220B089591E001C0990F47
:101660008A95EAF7892F0E94220B089521E030E045
:1016700001C0220F8A95EAF780911102822B0E9405
:10168000220B089521E030E0A90102C0440F551F4C
:101690008A95E2F7CA0180959091110289230E94F0
:1016A000220B089521E030E001C0220F8A95EAF76D
:1016B0008091110282270E94220B089590911102BD
:1016C000892B0E94220B08959091110289230E9478
:1016D000220B08959091110289270E94220B0895F0
:1016E00008959B01677091E001C0990F6A95EAF730
:1016F00063E0369527956A95E1F7B901660F771F84
:10170000260F371FFA01E20FF31F40E050E0682F69
:1017100070E08191DF0111979B01042E02C0369584
:1017200027950A94E2F72170219528272923282755
:101730002C934F5F5F4F4330510559F708959C013B
:10174000A82FA77083E0369527958A95E1F7C90100
:10175000880F991F820F931FFB01E80FF91F40E0CC
:1017600050E080E0219130E00A2E02C036952795A6
:101770000A94E2F721703327042E01C0220F0A9445
:10178000EAF7822B4F5F5F4F4330510559F70895B9
:10179000282F862F9A3068F4273058F4622F70E093
:1017A00027E0929F600D711D112446EF51E00E94C9
:1017B000710B0895292F9A3068F4873058F490E01F
:1017C00066EF71E037E0239F800D911D11240E9488
:1017D0009F0B089580E00895A0E0B0E0E2EFFBE009
:1017E0000C94E7307C010091110280911202082BC9
:1017F000C7E0D0E010E0C8010C2E02C09595879597
:101800000A94E2F780FD09C02197A8F7D12C8D2D0D
:10181000CDB7DEB7E7E00C940331DC2EB7018C2F97
:101820000E947F12019781F3F2CFCF93DF93D82FDD
:10183000C92F0E94EC0B6D2F7C2F0E947F12DF912D
:10184000CF9108951F93CF93DF93162FD72F9091A9
:10185000F501992341F0862F972F0E94150CDF91F7
:10186000CF911F910895882381F0862F972F0E9492
:10187000EC0BC82F682F812F9D2F0E94C80B612F62
:101880007D2F8C2F0E947F12EACF862F972F0E94E8
:10189000DA0BC82FF4CF0F931F93CF93E09113026D
:1018A000C6E0809114028E1304C0CF911F910F9156
:1018B00008950E2F10E0CE9FF0011124EB5EFD4F36
:1018C0004081518162817381848195810E94F40AF3
:1018D000F8013196E770E5CF4091450250914602FC
:1018E00060914702709148028091490290914A02AA
:1018F0000E94F40A08951F93CF93DF9380914A02C8
:10190000803108F04CC080914702882309F447C019
:101910008091130220911402609145023091460299
:10192000C0914802D0914902732F76232817B9F14C
:1019300090E0209709F443C016E07F3F09F43FC0D0
:10194000189FF001199FF00D1124DF01AB5EBD4F10
:1019500011964C91119734132CC04C91461329C009
:1019600012964C91129741111EC013964D915C91A5
:101970004C1B5D0B483C5105E0F480914A028F708E
:10198000806180934A02E65EFD4F80818F708061A6
:10199000808385E492E00E94760A0E944B0CDF91DE
:1019A000CF911F9108950196877099272813C8CF6A
:1019B000F6CF0196877099272813BFCFF0CF0196F5
:1019C0008770B4CF8F929F92AF92BF92DF92EF92C7
:1019D000FF920F931F93CF93DF93CDB7DEB72B9773
:1019E0000FB6F894DEBF0FBECDBF8C0185E0F801C5
:1019F000DE01179601900D928A95E1F7F801F280C9
:101A0000A380B48085E4882E82E0982E90914502D0
:101A100020914602409148025091490241155105DA
:101A200009F431C1822F89238F3F09F42CC1D09052
:101A30004702B501641B750BDD2009F4E8C08091F5
:101A40004A02683C710508F0BBC03181803108F062
:101A500079C0EF2C321314C02081291311C0F1106A
:101A60001EC08F70806180934A020E946C0CC4017A
:101A70000E94760A80914A02F8018583E12C4FC0CA
:101A80009F818885AB2889F0282F29232F3F69F073
:101A9000E09113022091140236E0FF20E1F08091E2
:101AA0004A02816080934A02E9CFFF2039F3F7CFE1
:101AB0004E2F50E03E9FF0011124EB5EFD4F6181FF
:101AC000861306C06081691303C062816111D6CF9D
:101AD000FA013196E770E213EBCF8F8198850E946F
:101AE000150C292F22952F70903248F49F7099235E
:101AF00011F08823A1F0805E883088F004C0225F56
:101B00002F70223028F0C8010E94760AED2C07C001
:101B10009F70992381F3F8019581903160F78E2DA4
:101B20002B960FB6F894DEBF0FBECDBFDF91CF91DD
:101B30001F910F91FF90EF90DF90BF90AF909F901B
:101B40008F900895321312C0208129130FC0F11015
:101B50000DC08583C8010E94760A86E0F801A5E4DD
:101B6000B2E001900D928A95E1F725C0C8010E946C
:101B7000D70A882309F47BC0FF2009F478C080913C
:101B80004A02803270F020914502309146023A8339
:101B900029831B82BD82AC828E83CE0101960E9476
:101BA000760A86E0F801A5E4B2E001900D928A95EC
:101BB000E1F70E947B0C0E946C0CEE24E394AFCF03
:101BC000803198F44F81588569857A858B850E948C
:101BD000EA0A85E492E00E94760A86E0F401119216
:101BE0008A95E9F70E946C0C49CF31812313BECF4F
:101BF00020812913BBCFF110B9CF8583C8010E9482
:101C0000760A86E0F40111928A95E9F7D6CF683C0E
:101C1000710588F5FF2059F1818128131EC080814C
:101C200089131BC080914A0280FD0EC0803160F094
:101C30008583807F803F09F48DCF8581982F907FA9
:101C4000905F8F70892B85CF86E0F801A5E4B2E024
:101C500001900D928A95E1F7B0CFC8010E94D70A92
:101C600081119FCF80914A02816080934A02C8010E
:101C70000E94760AA2CF4F81588569857A858B8527
:101C80000E94EA0AAACFFF2091F3C8010E94D70A56
:101C9000882369F386E0F801A5E4B2E001900D9293
:101CA0008A95E1F785E492E00E94430782CFACE099
:101CB000B0E0EDE5FEE00C94EB304F835887698788
:101CC0007A878B879C87CE0107960E94E20C882337
:101CD000D9F08A859B85892B61F058854F81852FA6
:101CE00084238F3F31F069857A858B859C850E949E
:101CF000F40A16E08091130290911402891344C0F3
:101D00002C96E3E00C94073186E0FE013796DE0165
:101D1000119601900D928A95E1F78F819885209117
:101D20001402409113026A857B85672B11F3892386
:101D30008F3FF9F230E0C90101968770992750E092
:101D40008417950771F40E94B50A1092140210923C
:101D5000130286E0E5E4F2E0DF011D928A95E9F7DF
:101D6000C8CF96E0929FD001939FB00D1124AB5E37
:101D7000BD4FFE01319601900D929A95E1F7809347
:101D800014020E944B0CB5CF189FC00111248B5E2A
:101D90009D4F0E94E20C882309F4B2CFE091130218
:101DA0001E9FF0011124EB5EFD4F40815181628145
:101DB0007381848195810E94F40A8091130290E0DE
:101DC0000196877099278093130294CF682F809192
:101DD0000401909105010E949E270895682F80912B
:101DE0000401909105010E94A127089580910401AA
:101DF000909105010E94A427089580915302859532
:101E000085958595089580915302877008959091E6
:101E10005302977081E0911101C080E00895809194
:101E20005E02089590915E02982B90935E02089551
:101E3000982F909580915E02892380935E02089589
:101E400010925E02089590915D02982B90935D022E
:101E50000895982F909580915D02892380935D026B
:101E6000089510925D020895809154020895089596
:101E70000E94370F089590912F0392FF08C0909110
:101E80005402981721F0809354020E94380F08954D
:101E900080915402882329F01092540280E00E941D
:101EA000380F0895CF93DF93E0910401F09105017D
:101EB00080915E028083E0910401F09105018081B0
:101EC00090915D02892B808390915402992381F037
:101ED000E0910401F09105018081892B808380913C
:101EE0000401909105010E94532781110E94480F1F
:101EF000C0910401D091050148E050E06BE472E02C
:101F0000CE010E947C31892B59F088E0FE01ABE4C0
:101F1000B2E001900D928A95E1F7CE010E940D2763
:101F2000DF91CF91089508950E94930F08959091A5
:101F30002F0392FF11C098E0899F90011124622B1A
:101F4000609353020E94360B8091530285958595CC
:101F500085950E94940F08950E94360B0895109263
:101F6000530280E00E94940F0895209153028095BF
:101F7000822380935302982F9770911113C030E001
:101F8000482F082E000C550B2417350759F0909157
:101F90002F0392FF07C08595859585950E94420B7A
:101FA0000E94AF0F089590912F0392FB222720F9F2
:101FB000281769F080FB92F990932F0380912E03EC
:101FC00090912F030E94251082E00E94B50F089582
:101FD00080912F0382FB882780F991E089270E9456
:101FE000D30F089581E00E94D30F089580E00E94EE
:101FF000D30F08956FEF7FEF80E090E00E94C4312F
:10200000089580E090E00E94A031883E9E4F19F430
:102010000E948C1F089580E0089582E090E00E9465
:102020009231089583E090E00E9492310895CF9319
:1020300084E090E00E949231C82F82E290E00E94FA
:102040009231982F8C2FCF910895CF93682FC92F5D
:1020500084E090E00E94A6316C2F82E290E00E9422
:10206000A631CF910895AB01BC018FE090E00E94B2
:10207000B8310895AB01BC0183E190E00E94B83112
:10208000089560E070E0CB010E943A10089560E08E
:1020900070E0CB010E9433100E944110089568EE59
:1020A0007EEF80E090E00E94C43160E082E090E04A
:1020B0000E94A63160E083E090E00E94A631109279
:1020C000120260E084E090E00E94A63164E082E2C7
:1020D00090E00E94A63160E085E090E00E94A63189
:1020E00060E086E090E00E94A6316FEF87E090E02C
:1020F0000E94A63140E050E0BA0188E090E00E94E2
:10210000B83160E08DE090E00E94A63140E050E000
:10211000BA0188E190E00E94B83160E087E190E088
:102120000E94A63140E050E0BA018CE190E00E94AC
:10213000B83160E070E080E290E00E94C43140E09D
:1021400050E0BA0188E190E00E94B83180E00E943E
:10215000A51F0E94E41F0E94471008950E944F107F
:102160000895682F8EE090E00E94A63108950E94A5
:102170006328609373027093740280937502909346
:10218000760260936F027093700280937102909355
:10219000720208950E946328609373027093740220
:1021A000809375029093760260936B0270936C0239
:1021B00080936D0290936E020895089508950E9491
:1021C000DE10089508950E94E21008958BE693E1D1
:1021D0000E94F6260E94DD100E94DF10089581E023
:1021E00008950E94EF100895089508950E94F41034
:1021F0000E94F51008950E9487130E94E206089538
:102200000E944E280E94F41F0E94B1130E94FB10EE
:102210000E94EA1D0E9480230E94E3100895A5E019
:10222000B0E0E5E1F1E10C94E4300E94C71381E6EF
:10223000C82E82E0D82E760110E0F70101917F01CF
:10224000812F0E94AA131F5F1A3009F442C0081799
:10225000A1F38091770281FD0E94B0130E94F110DA
:10226000A82E00E0802F0E94AA13182FF60191914A
:102270006F01891741F1B82EB926F12CEE24E394B1
:102280008E2D8B218823B9F0AA20A9F0F9820A8328
:1022900091E08E2D8123811101C090E09B830E94EB
:1022A00057288160782F9D838C8349815A816B8167
:1022B000892F0E940E07F394EE0CF7E0FF12E0CF97
:1022C000F601319710830F5F0A3061F60E94B71054
:1022D00020C00813BECF0E9457288C0180915F0256
:1022E0009091600208171907A1F08FEF89838A8304
:1022F0001B820E9457288160782F9D838C8349819F
:102300005A816B81892F0E940E07109360020093FF
:102310005F020E94261E0E94062481110E94CA109C
:102320000E94B8150E94F5062596EAE00C9400314B
:10233000CF93DF930E948412EC01811522E592076E
:1023400008F051C0811541E5940708F0ADC0883E02
:102350009105E0F0811550E5950790F186958695F9
:1023600060E2869FC0011124C370DD2721E030E0C8
:10237000A90102C0440F551FCA95E2F7EA01C82B14
:10238000D92BDD68CE01DF91CF910895803E910574
:10239000C8F7883A910560F4853A910508F073C052
:1023A0008130910579F30497813A910558F305C07E
:1023B000885A9109479708F469C0C0E0D0E0E2CF9D
:1023C000C11580E4D80708F06CC0CF3FD10509F0F3
:1023D00028F4C03FD10588F3D065D4CFCE019A95BB
:1023E0008F3F9E41E3CF811546E5940738F581156F
:1023F00055E5950708F06CC0811564E5960728F04F
:10240000D82FCC27C46FD06ABDCF86958695AE01F4
:102410004370552720E2C115D34508F04AC0829F7A
:10242000C001112421E030E002C0220F331F4A9581
:10243000E2F7822B932BEC01DC68A4CF81154AE5EF
:10244000940780F4811559E5950708F04BC098551D
:102450008F3F910511F008F0B0CFDC2FCC27C06F73
:10246000D06A90CF90568115904208F0A6CF8D2F5C
:102470008F710E94281390E0982F882788279F71DA
:102480008C2BEC012DC0A497D0647CCFC85AD0E02F
:10249000CC0FDD1FCF58DE4F0990D881C02DD464FA
:1024A00071CFDF70D06A6ECFD82FCC27C16FD06AC2
:1024B00069CF829FC001112421E030E002C0220FC9
:1024C000331F4A95E2F7822B932BEC01DA685ACF3F
:1024D0000E942813C82FD0E0DC2FCC27CC27DF7137
:1024E000D06250CF8F700E94281334E0D695C795E4
:1024F0003A95E1F7CF709C2FEC01D06943CF0E9451
:1025000050250E9498110895803E9105D1F1C8F49C
:102510008133910509F47FC048F48932910509F4AB
:102520006FC08A32910509F47DC008958933910501
:10253000E1F082389105C9F08533910509F45BC05B
:102540000895843E9105D1F148F4823E910531F120
:10255000833E910541F181EE90E00895863E91051C
:10256000C1F1873E9105E1F1089520912E0323707A
:10257000211165C020912F0323FF14C089E290E050
:10258000089520912E0320FD43C030912F0330FF8A
:1025900009C024FF4EC080E090E0089520912E03F2
:1025A00022FDF7CF089520912E0322FD45C03091E2
:1025B0002F0330FD44C024FFF5CFEDCF20912F0332
:1025C00021FFF0CF80912E0384FDE5CF87EE90E0D0
:1025D000089520912E0323FFE5CF24FDDCCFF6CF15
:1025E00020912E0323FD2EC030912F0331FFE3CF26
:1025F00084EE90E0089520912E0325FFD3CFBECF27
:1026000020912E0325FD21C020912F0323FFCACF47
:1026100089E390E0089520912E0326FFC3CF8AE23C
:1026200090E0089520912E0326FFBCCF81E390E037
:10263000089583EE90E0089582EE90E0089580EE94
:1026400090E0089586EE90E0089585E390E0AACFAB
:1026500090912E0392FF06C0282F28712830F9F49C
:10266000877F846093FF06C0282F28712831F1F4FA
:10267000877E846120912F0320FF06C0382F387198
:102680003830D9F4877F816021FF06C0282F287158
:102690002831D1F4877E816194FD877E0895282FAB
:1026A00024712430F9F68B7F8860DCCF282F2471C9
:1026B000243101F78B7E8861DDCF382F31713130C5
:1026C00019F78E7F8860E0CF282F2171213121F703
:1026D0008E7E8861E1CF80E008950E94FA0F089510
:1026E0000E94C7138FE39CE90197F1F700C0000037
:1026F0000E94C71380E00E94AA1380FF04C00E94BA
:102700006D130E94B32808950E94701308950E94CB
:102710000110811102C00E94AE100E940D10809322
:1027200077020E94171090932F0380932E030E942C
:1027300084130E9412100E940A0B809111020E94C1
:102740001F0B089508950E94A213089508950E94F2
:10275000A6130895E82FF0E0E65CFC4F8081089511
:1027600008950E94B8038AE0E0E3F3E0DF01982FC8
:102770001D929A95E9F7EAE3F3E0DF011D928A954D
:10278000E9F78AE00E94DA130E943B060895CF938E
:1027900080E393E00E945304282F4AE06AE373E049
:1027A00080E393E00E94DB13C82F0E943E068C2F2B
:1027B000CF9108950895A0E0B0E0E1EEF3E10C942C
:1027C000E730D82EE92EF62E072FC42F222349F00A
:1027D00081E080937A020E94572890937902809337
:1027E000780210917A02111107C010E0812FCDB745
:1027F000DEB7E7E00C940331809178029091790282
:102800000E948028059788F3D0E0AE016D2D7E2DC3
:102810008F2D902F0E947C31892B51F0AE016D2DB0
:102820007E2D8F2D902F0E94893110927A02DECF5B
:1028300010E0FBCF0E94992A0E9400110E94A62A54
:1028400008950E94AB2A0E940F110E94C52A089584
:102850000E94F0270E947F2A0E94E6100E941A140C
:102860000E9421140E94F610FBCF8091810280FF0C
:102870000DC060910B0170E0660F771F6038710525
:10288000C0F561157105B9F1862F089581FF07C064
:1028900060910B0184E0689FB0011124EFCF82FFAB
:1028A00004C060910B0188E0F6CF809180028823FC
:1028B000E9F090910A0160910B0170E0891730F006
:1028C00093E0660F771F9A95E1F7D8CF869F900126
:1028D000879F300D112483E0220F331F8A95E1F783
:1028E000692F70E0C9010E946830C8CF68E070E0CD
:1028F000CBCF8FE7089581E008958091810280FF1A
:102900000CC06091070170E07595679575956795A6
:102910006115710561F1862F089581FF06C06091F0
:10292000070170E075956795F3CF6091070170E03E
:1029300082FD15C020917F022223B1F09091060103
:102940006091070170E0291750F4269FA001279F8E
:10295000500D1124692F70E0CA010E946830603860
:102960007105B0F28FE7089561E070E0D4CF81E0A7
:102970000895E0E1E80F803FE0F1F0E0E95FFD4C11
:102980000C949E300E9435148195809385020895A1
:102990000E943514FACF0E943514819580938402E9
:1029A00008950E943514FACF0E947D148093860208
:1029B00008950E947D148195F9CF0E947D14819520
:1029C0008093870208950E947D14FACF845F990B4B
:1029D00021E030E001C0220F8A95EAF7809183025E
:1029E000822B80938302089580918102816080937D
:1029F00081020895809181028260F9CF80918102E5
:102A00008460F5CF40918402803F59F48091850223
:102A100087FF0DC010928502442359F41092800262
:102A200008C0813F81F48091850218169CF34423ED
:102A300081F08091860290918702892B811159C083
:102A400010927F020895823F41F447FFF0CF109229
:102A50008402809185028823E0CF833F19F4141605
:102A6000B4F3E5CF90918602893F29F41916FCF65C
:102A700010928602DCCF8A3F19F497FFD8CFF8CFA7
:102A8000909187028B3F29F497FFD1CF1092870254
:102A9000CECF8C3F19F41916CCF3C9CF9CE0980F18
:102AA000953090F4845F990B21E030E0B90102C0C9
:102AB000660F771F8A95E2F7CB018095909183028C
:102AC000892380938302B3CF8D3F31F480918102BB
:102AD0008E7F80938102ABCF8E3F21F48091810263
:102AE0008D7FF7CF8F3F09F0A2CF809181028B7F3E
:102AF000F0CF08950E9457282091840230918502DA
:102B0000232B222321F080937D0290937E0220913B
:102B1000860230918702232B222321F080937B02AF
:102B200090937C0282E892E00E941827089586E044
:102B3000E2E8F2E0DF011D928A95E9F71092800247
:102B400010927F02109281020895FC01828181110E
:102B50000DC0838181110AC08481811107C081E089
:102B60009581911101C080E08170089581E0FCCFD2
:102B7000A6E0B0E0EEEBF5E10C94E93086E0E2E8A7
:102B8000F2E09E012F5F3F4FD90101900D928A958F
:102B9000E1F7109284021092850210928602109240
:102BA00087028B819C81892B8901882391F08091F8
:102BB0007D0290917E020E9480289C01809180027B
:102BC0008823C9F140910C0150E04217530708F4E3
:102BD0003FC08D819E81892B882399F080917B0253
:102BE00090917C020E9480289C0180917F02882322
:102BF00009F46DC04091080150E04217530708F4F2
:102C000074C0B80182E892E00E94AC27811105C02F
:102C100082E892E00E94A51581110E947A1586E053
:102C2000F801A2E8B2E001900D928A95E1F72696AC
:102C3000E5E00C94053140910D019AE0499FA00117
:102C400011244217530728F68F5F8093800202C039
:102C50008F3FD1F7FB80FF2059F00E94351491E09F
:102C60001F140CF09FEF899F802D11248093840204
:102C7000FC80FF2059F00E94351491E01F140CF0E5
:102C80009FEF899F802D11248093850230918402CB
:102C9000332309F49ECF20918502222309F499CF92
:102CA00045EB3403C0011124892F911101C081E04B
:102CB0008093840245EB240390011124332319F0FF
:102CC0003093850286CF81E08093850282CF409148
:102CD00009019AE0499FA00111244217530708F007
:102CE00090CF8F5F80937F0202C08F3FD1F7FD802E
:102CF000FF2059F00E947D1491E01F140CF09FEF0B
:102D0000899F802D112480938602FE80FF2059F038
:102D10000E947D1491E01F140CF09FEF899F802D7D
:102D200011248093870230918602332309F469CFFE
:102D300020918702222309F464CF45EB3403C001BC
:102D40001124892F911101C081E08093860245EB07
:102D5000240390011124332319F03093870251CFBB
:102D600081E0809387024DCFA0E0B0E0EAEBF6E18E
:102D70000C94E430E82F71110DC0442321F0F0E0F1
:102D8000E25FFB4F8491682F782FCDB7DEB7EAE082
:102D90000C940031262F30E0C72FD0E0F0E0442320
:102DA00021F0E25FFB4FE491F0E086E0829F70014A
:102DB000839FF00C11240FEF10E0C701B8010E94AF
:102DC0005430AB01220F331F65E5649FC001659F3E
:102DD000900D1124281B390BC22ECC0CC20EC80139
:102DE0008C1B9D0B8E9F90018F9F300D9E9F300DF1
:102DF0001124832FCC9EB001CD9E700D1124672F1E
:102E000077275801A61AB70AAE9ED001AF9EB00D23
:102E1000BE9EB00D11247B2F5801AC18B10865017E
:102E2000CC9E5001CD9EB00CDC9EB00C1124AB2C7E
:102E3000BB240A191B090E9FE0010F9FD00D1E9F96
:102E4000D00D11246E2F43305105C9F09CEFE916C7
:102E500093E0F90650F44130510509F496CF423021
:102E6000510589F07E2F6D2F90CF4430510571F0C0
:102E700046305105B9F3632F8B2F7E2F86CF6B2FF2
:102E8000732F8E2F82CF732F8D2F7FCF7D2F632FA8
:102E9000F8CF41E00E94B41608950895883170F487
:102EA000482F460F5527551F493151053CF4809353
:102EB0001301860F809314016093150108950E94F9
:102EC00049170895CF93DF93982F762F842FE90128
:102ED000692F0E945F17798368838A83DF91CF917E
:102EE00008954B3508F04AE50E94621708958091D5
:102EF0004403823060F48170826080934403809147
:102F000047038B3518F08AE580934703089586358B
:102F1000B0F381708465F1CF88E090E00E949A312F
:102F200008950F931F93CF93DF938B01D82FC92F51
:102F30000E947717A8016D2F7C2F88E090E00E94F7
:102F4000B831DF91CF911F910F910895A4E0B0E0C7
:102F5000ECEAF7E10C94EC30809144039091450346
:102F6000A0914603B0914703BC01CD010E94911787
:102F70002496E2E00C940831E4E4F3E083E08083FB
:102F800011828FEF82838AE58383148263E070E08D
:102F90008FEF9AE50E94911708958091440380FF76
:102FA00002C08695089580E00895A4E0B0E0EBEDBE
:102FB000F7E10C94EC3090914803933018F49F5F44
:102FC00090934803882361F08091440390914503D6
:102FD000A0914603B0914703BC01CD010E94911717
:102FE0002496E2E00C94083181E00E94D517089500
:102FF000A4E0B0E0EEEFF7E10C94EC3090914803E0
:10300000992319F0915090934803882361F080919F
:10301000440390914503A0914603B0914703BC013E
:10302000CD010E9491172496E2E00C94083181E0D2
:103030000E94F8170895809148030895A4E0B0E035
:10304000E4E2F8E10C94EC3080934803662361F0ED
:103050008091440390914503A0914603B0914703AA
:10306000BC01CD010E9491172496E2E00C94083136
:1030700060E00E941E180895809145030895809194
:103080004603089580914703089570E00E945E1FF3
:103090000895CF92DF92EF920F931F93CF93DF9318
:1030A000CDB7DEB7C854D1090FB6F894DEBF0FBE56
:1030B000CDBF609112018091440380FF39C0E6EFDB
:1030C000F3E09E012F5F3F4FCE01875B9F4F890149
:1030D000449150E0DA01AA0FBB1FA40FB51FA75BF4
:1030E000BC4FCD90DD90EC90D901CD92DD92ED9268
:1030F0009D013196A817B90759F72091110130E0C9
:10310000C901880F991F820F931F800F911F0E9482
:103110004518C85BDF4F0FB6F894DEBF0FBECDBFBA
:10312000DF91CF911F910F91EF90DF90CF90089595
:103130008091130190911401282F30E0F901EE0FD6
:10314000FF1FE20FF31FE75BFC4F891708F0B7CFB3
:103150001182108212828F5F3396F7CF90914403D1
:1031600090FF11C09091130150911401292F30E06C
:10317000F901EE0FFF1FE20FF31FE75BFC4F9517FE
:1031800018F00E94491808958183608342839F5FED
:103190003396F5CFA3E0B0E0E0EDF8E10C94EC302D
:1031A0009091440390FF0AC09E012F5F3F4F0E9401
:1031B00071174B8169818A810E94AE182396E2E0E3
:1031C0000C940831CF93DF93EC01EC81F0E0EF50E9
:1031D000FD4F4491E4E4F3E0628181810E94CA18CA
:1031E0008C818F5F8C83DF91CF910895CF93DF9394
:1031F000EC01E4E4F3E0438162818C810E94CA180F
:103200008C818F5F8C83DF91CF910895A3E0B0E034
:10321000ECE0F9E10C94EA308C0180918802811194
:103220000AC09E012F5F3F4F4AE56FEF0E94711762
:103230008A8180938802F8016481613049F06230AC
:10324000D1F08091880240E0662331F040E015C063
:103250006091880240E080E00E94AE18F80184810D
:1032600090E0019663E070E00E94683084832396CA
:10327000E4E00C9406314091880280E060E0ECCFFD
:10328000A7E0B0E0E6E4F9E10C94E430F82ED62EA5
:10329000E42EB22E9091440390FF2BC0E92FE695C7
:1032A000AE2FB0E0A156BE4F8C9180930A039E7F53
:1032B000923019F59E012F5F3F4F8F2D0E9471179D
:1032C0004B8169818A810E94AE18F0924503D092A9
:1032D0004603E0924703BB2061F080914403909144
:1032E0004503A0914603B0914703BC01CD010E9464
:1032F00091172796EAE00C940031823019F4E0909F
:103300004703E3CF863019F4F0904503DECF8930D0
:10331000D9F38931D1F6E9518E2F8170A82EE69527
:10332000F0E0EF50FC4FE491C12C0E2F10E06091C3
:103330001501C61618F00E944918C7CF2C2D30E091
:10334000C09EC001C19E900D112470E00E945430B7
:103350008F2DA11013C0860F90911301A901490F61
:10336000511D9A01220F331F240F351F275B3C4F3D
:103370004E2D6D2D0E947117C394D9CF861BECCFB3
:10338000282FE4E4F3E0818143816281865F0E941B
:103390004019089581E00E94C0190895282FE4E49F
:1033A000F3E08181438162818A500E94401908952F
:1033B00081E00E94CE190895282FE4E4F3E06281B1
:1033C00031E1630F08F46FEF438181810E9440195E
:1033D000089581E00E94DC190895282FE4E4F3E0C9
:1033E000628131E1631B08F460E0438181810E94C6
:1033F0004019089581E00E94ED190895282FE4E412
:10340000F3E0438131E1430F08F44FEF62818181A2
:103410000E944019089581E00E94FE190895282F06
:10342000E4E4F3E0438131E1431B08F440E06281CE
:1034300081810E944019089581E00E940F1A089529
:1034400020E00E94401908950F939091440390FF4B
:103450001CC02017D0F40931C0F4A22FB0E0FD0148
:10346000EE0FFF1FEA0FFB1FE75BFC4F81836083BA
:1034700042832F5F33960213F9CF0E9449188FE9D8
:103480009FE00197F1F700C000000F910895A3E0BD
:10349000B0E0EDE4FAE10C94EA30122F909144038D
:1034A00090FF0BC09E012F5F3F4F0E947117212F8D
:1034B0004B8169818A810E94241A2396E4E00C944E
:1034C0000631EF92FF921F93CF93DF93EC0110E050
:1034D000EE24EA94F12C60911501161770F00E9409
:1034E00049189A818C8190FF25C08F5F8C83DF9172
:1034F000CF911F91FF90EF90089580911301810F5C
:103500009927991F9C01220F331F280F391F275B12
:103510003C4F70E0C7010E946830962F8C8140912B
:10352000470360914603199F800D11240E94711773
:103530001F5FD1CF8150DACFA0E0B0E0E2EAFAE13C
:103540000C94E530FC01828101E080FD0FEF10E07A
:1035500080911501181798F00E94491880918A02ED
:10356000013009F051C0811102C0809115018150D4
:1035700080938A02CDB7DEB7E9E00C9401318091E7
:103580001301C12ED12C8C0D9D2D911DEC01CC0F62
:10359000DD1FC80FD91FC75BDC4F198218821A8242
:1035A00034E0E32EF12CB12C80918A028B0D89310D
:1035B0002CF168E10E944630892F082E000C990BEF
:1035C000C816D90691F4809147038E9DA0018F9D66
:1035D000500D112455954795559547959E0160913D
:1035E0004603809145030E947117B00EF1E0EF1A77
:1035F000F108E114F104C1F61F5FAACF87FFDDCF08
:1036000090911501890FD9CF90E001966091150135
:1036100070E00E946830ACCF0F931F93CF938091DE
:10362000130190911401282F30E0F901EE0FFF1FD4
:10363000E20FF31FE75BFC4F891730F1C0E06091A8
:103640001501C61738F10E94491820910F01809189
:103650008902820F8093890290911001920F9093BA
:103660001001191654F4082E000C990B4091150105
:103670004150550B841795071CF0219520930F019D
:10368000CF911F910F9108951182108212828F5F46
:103690003396D2CF0C2F10E070E0C8010E94683042
:1036A00090911301980F892F90E020918902022EAA
:1036B000000C330BFC01EE0FFF1FE80FF91F021780
:1036C0001307ACF020911001022E000C330B2017D1
:1036D00031076CF09F01275B3C4F4091470360919D
:1036E0004603809145030E947117CF5FA8CFE75B27
:1036F000FC4F118210821282F8CFAEE0B0E0E3E816
:10370000FBE10C94E8308D879E87AD85BE851496CD
:103710001C91212F30E0D9010E94B3309B01AC01F4
:103720000E94C93069837A838B839C83E0E2F0E056
:10373000E11BF109A5E5B0E09B01AC010E94C93095
:1037400069877A878B879C879F01DF010E94AB3056
:103750009B01AC010E94D4306D837E838F83988758
:103760009B01AC0189819A81AB81BC81280F391FF3
:103770004A1F5B1F69857A858B859C850E947C30FA
:10378000022F30E00A3248F5A901440F551F420FBD
:10379000531F55954795142F1095F12C85E5E82E6C
:1037A000E01A80911501F81630F10E944918AD8594
:1037B000BE8514969C9181E0992319F0903219F4FA
:1037C0008FEF80930E0180910E01890FED85FE85AC
:1037D00084832E96E6E00C94043185E590E0821B0C
:1037E000930BAC01440F551F480F591F57FFD1CF02
:1037F0004F5F5F4FCECF8E2DF1FC802F4091130194
:103800004F0D5527551F9A01220F331F240F351FC7
:10381000275B3C4F412F609146030E947117F39440
:10382000C0CF0F931F93CF93DF93EC0100E010E024
:1038300040911501842F90E0081719076CF00E9441
:1038400049188C8190E00196817099278C83DF91D3
:10385000CF911F910F91089580911301800F912FA7
:10386000911D9C01220F331F280F391F275B3C4FEE
:103870009C816091460380914503469550E0041772
:1038800015074CF4992349F0409147030E947117A2
:103890000F5F1F4FCDCF9923B9F340E0F7CFA0E0E2
:1038A000B0E0E5E5FCE10C94E030FC01828064804E
:1038B00081E08483E1EFF2E09490E0E7F3E0E491CB
:1038C000A12C75E0B72EF2E0CF2EDD24D39477241F
:1038D0007A94E9190E2F10E080911501A81638F09E
:1038E0000E944918CDB7DEB7EEE00C94FC30EA2C0C
:1038F000F12C82E0881568F0BE9CF001BF9CF00DB1
:103900001124E557FD4F8091450380838091460344
:103910008183611023C0BE9CF001BF9CF00D112477
:10392000E557FD4F13821282809113018E0D9F2D5A
:10393000911D9C01220F331F280F391F275B3C4F1D
:10394000BE9CF001BF9CF00D1124E557FD4F428154
:10395000618180810E947117A394BECFBE9CE0015B
:10396000BF9CD00D1124C557DD4F8B818823E9F012
:1039700081508B83789EC00111246C8170E00E947D
:103980005430FB01FF27EF50FD4F8491E82FE919D8
:103990007E9EC0011124B8010E94543080914703DB
:1039A000689FB00111247A83BFCF0E945F31AC01C0
:1039B00090914703969591589C9D90019D9D300D47
:1039C0001124232F3327421753070CF0ADCF82E089
:1039D000881590F40E945F316FEF70E00E946830AC
:1039E00088830E945F31209146032695622F70E004
:1039F0000E946830280F2983BE9CF001BF9CF00D07
:103A00001124E557FD4F128280914703893C58F0FD
:103A100088ECBE9CF001BF9CF00D1124E557FD4FD2
:103A20008483838381CF8431A0F784E1F2CFA4E043
:103A3000B0E0EDE1FDE10C94EC30E4E4F3E08081F2
:103A40008E7F808380819181A281B38189839A83D3
:103A5000AB83BC83BC01CD010E94911710920B0374
:103A60009FEFA0E7B2E09150A040B040E1F700C066
:103A700000000E9449182496E2E00C940831E4E426
:103A8000F3E080818E7F808310920B032FEF80E71D
:103A900092E0215080409040E1F700C000000E9479
:103AA0004918089560914403669570E04BE050E03A
:103AB00086E191E00E946F31892B19F481E08093B7
:103AC0000B030E94572890930403809303030895E7
:103AD000A4E0B0E0EEE6FDE10C94EC3090914403FC
:103AE00090FF33C08823A9F18B32A8F58F77880F18
:103AF000909144039170892B80934403662361F075
:103B00008091440390914503A0914603B0914703EF
:103B1000BC01CD010E94911760914403669570E04D
:103B20004BE050E086E191E00E946F31892BA9F0D3
:103B300010920B0381E0809306034091470360914C
:103B40004603809145030E94201A2496E2E00C94DB
:103B5000083181E0CCCF8AE2CACF0E94521DEACF61
:103B6000682F8091440386958F5F8B3208F081E047
:103B70000E94681D089581E00E94B01D0895682F7D
:103B80009091440396958FEF890F913009F48AE262
:103B90000E94681D089581E00E94BF1D089561E0A4
:103BA0000E94681D0895E4E4F3E0808181608083D1
:103BB00086950E94CF1D08958091440380FF03C025
:103BC0000E94171D08950E94D31D089560E00E9471
:103BD000681D08958091090381112EC00E94011073
:103BE000811104C00E94AE100E94BC170E948C1765
:103BF0006093440370934503809346039093470377
:103C0000623060F40E94BC170E948C1760934403DA
:103C10007093450380934603909347030E94771760
:103C200010920B038091440380FF03C086950E948D
:103C3000E61D81E0809309030895E4E4F3E08081C8
:103C40008160808386950E94E61D08950F931F93DF
:103C5000CF93DF9380910B038823B9F180910A03FE
:103C6000E0914403E695E81BE0930503823091F56B
:103C7000F0E0E351FD4FE491CE2FD0E002EE18E1E9
:103C800080910603882361F0109206030E94572852
:103C90009093040380930303109208031092070388
:103CA0000E9457282091030330910403821B930B39
:103CB0008F3F9F4750F42C0F3D1F309304032093F8
:103CC000030383E093E0F8010995DF91CF911F9101
:103CD0000F910895C8E2D0E00DE71BE1883181F231
:103CE000C0F48F3009F43AC048F4863021F18930AD
:103CF00059F1C0EDD7E00DE417E1C2CF8531C9F726
:103D0000F0E0EF51FD4FE491CE2FD0E00CE01BE14D
:103D1000B7CFC4EFD1E001E11CE1843209F4B0CFA8
:103D2000853231F1833229F7EFEDF2E0C591D4917C
:103D300006E019E1A5CFF0E0E651FD4FE491CE2F6A
:103D4000D0E006EF18E19CCFE695F0E0E951FD4F99
:103D5000E491CE2FD0E001E61AE192CFE695F0E0B3
:103D6000EC51FD4FE491CE2FD0E00CE91AE188CF61
:103D70008E2F63E00E943A30E92FF0E0E452FD4FCD
:103D8000E491CE2FD0E00FE41CE17ACFFA01882332
:103D900011F009950895FB01FCCFCF93DF93C82F55
:103DA000D62F0E94CD178C1748F00E94CD178D1783
:103DB00028F40E94BB1DDF91CF9108958C2F0E94A3
:103DC000CF1DF9CF1F93CF93DF93EC01FB0112813D
:103DD00011111BC00E940F0F8272C63DFCE5DF0768
:103DE00070F4C23C9CE5D90780F0FE01E35CFC4521
:103DF000E331F10560F4E95EFD4C0C949E306AE21B
:103E000085E2CD35DD4509F443C011E002C00E94D2
:103E1000DC1D812FDF91CF911F9108954BEC5DE167
:103E20006BEB7DE10E94C61EF4CF4BEB5DE16BECCA
:103E30007DE1F8CF48ED59E16AEC79E1F3CF4AEC46
:103E400059E168ED79E1EECF4AEF59E169EE79E1A8
:103E5000E9CF49EE59E16AEF79E1E4CF4CE15AE16B
:103E60006BE07AE1DFCF4BE05AE16CE17AE1DACF47
:103E700047E158E164EF77E1D5CF44EF57E167E1DF
:103E800078E1D0CF81E00E94CF1DC3CF65E082E012
:103E90000E94CD1EBECF68E086E0FACF6EE089E0DA
:103EA000F7CF64E18FE0F4CF67E185E1F1CF88E1FE
:103EB000EACF62E289E1ECCF83E2E5CF9C01AB017E
:103EC000539A6BB1677F7BB17860EFB7F894CA0102
:103ED000880F991F840F951F820F931F82179307D6
:103EE00041F4EFBF8FE594E00197F1F700C00000C7
:103EF0000895D9014D919D0158E07BB9000000C0A3
:103F000047FF6BB9440F000000C000C000C06BB990
:103F100000C05A9591F7E2CF83E290E00E9492317F
:103F2000843289F484E290E00E949231843059F422
:103F300085E290E00E94923191E0853209F090E0B4
:103F4000892F8170089580E0FCCF882381F064E29E
:103F500083E290E00E94A63164E084E290E00E9457
:103F6000A63165E285E290E00E94A63108956FEFE8
:103F700083E290E00E94A6316FEF84E290E00E941D
:103F8000A6316FEFEFCF0895A4E0B0E0EAECFFE1D7
:103F90000C94EC3086E290E00E949231282F30E0C1
:103FA00040E050E0CA01B9012496E2E00C940831E7
:103FB0000895CF93C62F0E94D81F6C2F86E290E001
:103FC0000E94A631CF91089580E00E94A51F60E075
:103FD00070E0CB010E94D91F0E94D1240E94A62527
:103FE00081E00E94A51F08950E94C31F0E94C41F64
:103FF0000E94D81F0E948C1F811102C00E94E41FE2
:1040000008959C01FB018281882329F1A901425175
:104010005F4540315105B8F48EEE820F0E94B625FF
:1040200080E0089581E00E94360B03C081E00E9489
:10403000420B43E062E081E00E943106F1CF82E072
:10404000F2CF82E0F4CF2031FFE53F0759F3213171
:104050003F45A9F308952031EFE53E0739F32131BB
:104060003F4579F381E008952FEFFC012083089507
:10407000CF93DF93EC018881823809F138F48038DE
:1040800071F08138C1F0DF91CF9108958338D9F76D
:104090000E943C1889830E943F188A83F4CF0E94B3
:1040A00042182FEF829FC00111246AE570E00E9440
:1040B00054306983E8CF0E94CD178983E4CF0E94F2
:1040C0001B18FBCFCF93DF93EC018881823881F1FD
:1040D00038F4803869F08138F9F0DF91CF91089594
:1040E0008338D9F70E944218482F6A81898111C00C
:1040F00089812AE5829FC00111246FEF70E00E9440
:104100005430D62F0E943F18C82F0E943C184D2FC4
:104110006C2F0E94201AE1CF89810E94E61D8981BF
:10412000811103C00E943F1DD8CF0E941D1ED5CF14
:1041300089810E943818D1CFAEE0B0E0E2EAF0E227
:104140000C94E8308D839E83162F8D819E81DC0137
:10415000ED91CD01E150E33108F0E4C0F0E0E65D1F
:10416000FD4C0C949E30ED81FE8111828AE08283A9
:10417000612F8D819E810E9457292E96E6E00C9436
:104180000431AD81BE8111968C91823079F08330FB
:10419000D1F0813041F50E9463280E94A430ED8166
:1041A000FE816283738384839583E2CF0E94C41F60
:1041B0000E94A430AD81BE8112966D937D938D9344
:1041C0009C931597D5CFED80FE80B2E0EB0EF11CED
:1041D00000E0802F0E94AA13F70181937F010F5FF7
:1041E0000A30B9F7C5CF612F8D819E810E9434209E
:1041F000BFCFAD81BE8111968C911197823099F716
:1042000012968D919D910D90BC91A02DBC01CD0178
:104210000E94A4300E94D91FABCFED81FE81438163
:10422000628181810E949324982789279827AD81F4
:10423000BE8115969C938E9314979ACFED81FE8143
:10424000248135813227232732274381628181816E
:104250000E94B5248DCF0E94D1248ACF0E94622073
:1042600087CF0E94382084CF0E94A61781CF0E945A
:104270005E25AD81BE8111968C937ACF0E94602518
:10428000982789279827ED81FE819283818370CFBB
:10429000AD81BE8113966C91139770E011968D914C
:1042A0009C911297AD014C5F5F4F98278927982703
:1042B0000E9463255DCFED81FE81638170E0818185
:1042C0009281AF014C5F5F4F9827892798270E9402
:1042D00085254ECF0E94A6254BCF0E948124C9CFB1
:1042E000ED81FE81638170E081819281AF014C5F3D
:1042F0005F4F9827892798270E940F2539CFAD81D6
:10430000BE8113966C91139770E011968D919C91DC
:104310001297AD014C5F5F4F9827892798270E941D
:10432000302526CF8FEFED81FE81808321CFCF9383
:10433000DF93EC01FB018281882309F401C1C136BE
:10434000FDE5DF0709F451C0A8F5C631ECE5DE074D
:10435000C8F4C230FCE5DF0708F45AC00E94171009
:1043600090932F0380932E03FE01E350FC45809130
:104370002E038160E331F10508F03FC0E35CFD4CA2
:104380000C949E309E012A5F3C452930310508F08F
:104390003FC00E94171090932F0380932E03FE01BD
:1043A000EB5FFC45E830F10508F04AC0E05BFD4CEE
:1043B0000C949E30C53A9DE5D90769F19E012D5AAE
:1043C0003D452330310520F50E94171090932F03AF
:1043D00080932E03CD3AEDE5DE0709F0B3C080915E
:1043E0002F03886080932F030AC00E9417109093B8
:1043F0002F03809584FB809584F980932E03809110
:104400002E0390912F030E9425100E94B50A80E090
:10441000DF91CF9108950E94171090932F038095FC
:1044200080FB809580F9E9CF80912E038260E5CFF3
:1044300080912E038460E1CF80912E038860DDCFD0
:1044400080912F038160CECF80912F038260CACFED
:1044500080912E038061D1CF80912E038062CDCFD9
:1044600080912E038064C9CF0E94B50A80912E03EB
:104470008068C3CF80912E038C60BFCF80912F03C3
:104480008360B0CF80912E038E7FB7CF80912E03B3
:104490008D7FB3CF80912E038B7FAFCF80912E0382
:1044A000877FABCF80912F038E7F9CCF80912F038E
:1044B0008D7F98CF80912E038F7E9FCF80912E038A
:1044C0008F7D9BCF80912E038F7B97CF0E94B50A63
:1044D00080912E038F7791CF80912E03837F8DCF94
:1044E00080912F038C7F7ECF80912E0382FB9927B2
:1044F00090F921E0922790FB82F990FB83F97DCF20
:1045000080912F03982F909591708E7F892B90FB2F
:1045100081F968CF0E94B50A90912E03892F97FBED
:1045200087F980586ACF81E00E94B11068CF80E09F
:10453000FBCF90912F03892F877F93FF886052CF05
:1045400081E066CFCE3ADD45A1F780912F03877FCA
:1045500049CFFF920F931F93CF93DF93E82FF0E0A3
:10456000E25FFA4FF490282F26952695269530E0A5
:10457000F901E255FA4F94918770F901E256FA4F2A
:10458000049110E0082E02C0159507950A94E2F7F1
:1045900001701127F901E257FA4FC491D0E0082EBB
:1045A00002C0D595C7950A94E2F7C170DD27E92FBF
:1045B000F0E002C0F595E7958A95E2F7E0FD10C0BE
:1045C00001151105C1F48F2D0E944A08CD2B19F059
:1045D0008CE20E944A08CDB7DEB7E5E00C940531C5
:1045E00081EE0E9449070115110579F48F2D0E9473
:1045F0004A0881EE07C086EE0E9449078F2D0E946F
:104600004A0886EE0E94D907E1CF86EE0E9449074C
:104610008F2D0E944A0886EE0E94D907EACFEF92BA
:10462000FF921F93CF93DF93EC01162F888188238D
:1046300009F456C0813009F050C089818130A1F45D
:104640007E0122E0E20EF11C8A810E944A08E70105
:104650002196812F882351F3EFE9FFE03197F1F79D
:1046600000C000008150F6CF823041F47E0182E02C
:10467000E80EF11C8A810E944907E9CF833041F49A
:104680007E01E2E0EE0EF11C8A810E94D907DFCFA5
:10469000843011F02196DCCF2A81229680E090E0D0
:1046A0006AE0AE014F5F5F4F2053330B2A30310574
:1046B00048F0019768F2EFE9FFE03197F1F700C0A9
:1046C0000000F7CF689FF001699FF00D1124C90128
:1046D0008E0F9F1F2981EA01E4CF0E94A922B8CF43
:1046E000DF91CF911F91FF90EF9008958FE891E0B7
:1046F0000197F1F700C0000008950E948F0508950A
:10470000EF92FF920F931F93CF93DF9382E08093FA
:104710000E038CEDE82E81E0F82E0AED11E0A801E1
:10472000D70121E030E08D91E82FE295EF7061E252
:104730006E0F70E0EB01F8818F70E90102C0CC0FC1
:10474000DD1F8A95E2F7CE019C2F90959F23EB0108
:104750009883EE5DF0E09081892B8083FA0181914E
:10476000AF01E82FE295EF7061E26E0F70E0EB01B0
:10477000F8818F70E90102C0CC0FDD1F8A95E2F746
:10478000CE019C2F90959F23EB019883EE5DF0E086
:104790009081892B8083D1E0AE3DBD0721F60E9438
:1047A000762340910E03A1E1B3E0ECEDF1E08E2F12
:1047B0008E19841728F0CDB7DEB7E6E00C940431EB
:1047C0005191852F82958F70805E90E0EC01288159
:1047D000E80139918E01832F82958F70805E90E081
:1047E000EC01888190E03F7002C0959587953A95DD
:1047F000E2F78170880F30E05F7002C03595279531
:104800005A95E2F72170822B8D93D1CFA0E0B0E0D2
:10481000ECE0F4E20C94E630F12CE12C84E0C82EBC
:10482000D12C80910E03F81630F08E2DCDB7DEB767
:10483000E8E00C9402310F2D10E0F801E452FE4F35
:104840004081E42FE295EF70E05EF0E02081F80116
:10485000E652FE4F3081E32FE295EF70E05EF0E02C
:10486000808190E03F7002C0959587953A95E2F778
:104870008170880F30E04F7002C0359527954A95BA
:10488000E2F72170822BD801AF5EBC4FEC919E2FD6
:1048900093709817A1F1EE0FEE0FE82BEC93EF70E9
:1048A000F0E0E653FE4FE801C15FDC4F8081988164
:1048B000890F888320E084305CF0F801E45FFC4FCE
:1048C00080818F5F808360E08F2D0E947D2321E0B7
:1048D00088818D3F5CF4F801E45FFC4F808181505A
:1048E000808361E08F2D0E947D2321E08881082E46
:1048F000000C990BB6010E9468308883E22AF39479
:1049000090CF84E0089550E0440F551F9EE0699FCA
:10491000400D511D11249CE8899F400D511D11240B
:10492000CA01879608950F931F93CF93DF93843026
:10493000C8F46A30B8F44730A8F40E9483248C018C
:104940000E949231C82FD0E0DC2FCC27C8010196FD
:104950000E9492319E01282BC901DF91CF911F91B6
:104960000F91089580E090E0F8CF0F931F93CF93BD
:10497000DF93122F032F843078F46A3068F44730C5
:1049800058F40E948324EC01602F0E94A631612F0D
:10499000CE0101960E94A631DF91CF911F910F9118
:1049A0000895A0E0B0E0E7EDF4E20C94E430A12C2F
:1049B000B12CC0E0D0E0650110E01CC00E94C3052E
:1049C00090E021E030E0C817D9071CF4F7012591E9
:1049D0003491402F612F8C2F0E94B52422E0E20EEB
:1049E000F11C0F5F073051F737E0C30ED11C1F5F7A
:1049F0001A3049F0C601880F991F9C0124553F4F7A
:104A0000790100E0DBCF219636E4A30EB11CC4305F
:104A1000D10589F6CDB7DEB7EAE00C940031EF920C
:104A2000FF920F931F93CF93DF938C01EA017A01DA
:104A3000E60EF71ECE15DF0529F4CDB7DEB7E6E0AA
:104A40000C940431003382E0180740F4C8018796C3
:104A50000E94923189930F5F1F4FECCF80E0FACF15
:104A6000EF92FF920F931F93CF93DF938C01EA0194
:104A70007A01E60EF71ECE15DF0529F4CDB7DEB7B5
:104A8000E6E00C940431003382E0180728F46881D2
:104A9000C80187960E94A63121960F5F1F4FEBCF6A
:104AA000462F672F843038F47A3028F4473018F4D2
:104AB0000E949324089580E090E0089580E1089595
:104AC00089EA91E00895EF92FF920F931F93CF939D
:104AD000DF938C01EA017A01E60EF71ECE15DF05A1
:104AE00029F4CDB7DEB7E6E00C940431093A81E051
:104AF000180748F4C801895A9D4F0E949231899342
:104B00000F5F1F4FEBCF80E0FACFEF92FF920F9332
:104B10001F93CF93DF938C01EA017A01E60EF71E13
:104B2000CE15DF0529F4CDB7DEB7E6E00C940431ED
:104B3000093A81E0180730F46881C801895A9D4F0D
:104B40000E94A63121960F5F1F4FEACFCF93DF93CC
:104B5000C7E5D2E060E0CE010E94A6312196C115E2
:104B600084E0D807B9F7DF91CF910895A4E0B0E0D1
:104B7000ECEBF5E20C94E730F82E8FE08F1588F11E
:104B80008FEF93E00E94923181112BC007E512E074
:104B9000F1102BC080912E0190912F01A091300136
:104BA000B091310189839A83AB83BC83DD24D39494
:104BB00078018FEFE81AF80AC8010E9492318983C0
:104BC0001A82882371F09FEF980F9330D8F48A836C
:104BD000D9820E5F1F4FC7010E9492318B838111D2
:104BE00012C02496E7E00C940331011584E0180705
:104BF000C1F3C8010E9492310F5F1F4F8111F5CFA1
:104C0000FA94C6CF870160E0CE0101960E940F237F
:104C1000CFCFCF93DF93EB0186319C4519F50E94EE
:104C20000F0F9A819923A1F08A7A91E0811101C036
:104C300090E090931303882349F085E30E94E60EE9
:104C40000E94520F80E0DF91CF91089589E2F6CF64
:104C500080911303882321F085E30E94EE0EF0CFAC
:104C600089E2FBCF81E0EFCF0F931F93CF93DF93C8
:104C7000C42FD22FFC0182818823C9F040931603F0
:104C80000E945728909315038093140380E28C0FA1
:104C9000883040F4C77081E001C0880FCA95EAF7F8
:104CA0000E945308DF91CF911F910F9108951091A9
:104CB000160314133CC080911403909115030E94B5
:104CC0008028883C910598F5C0E2CD0F1D1741F171
:104CD00080E2810F883040F4177081E001C0880FB6
:104CE0001A95EAF70E945A08C83020F0802F0E94D7
:104CF0004A08D8CF91E08D2F877001C0990F8A950F
:104D0000EAF7892F0E945308802F0E944A08D77023
:104D100081E001C0880FDA95EAF70E945A08C2CFF5
:104D2000802F0E944A08C83008F0BCCFF0CF80E244
:104D30008C0F883008F0B6CFC77081E001C0880FB3
:104D4000CA95EAF7EACF0F939C01CB01233F4CE5CC
:104D50003407A1F190F4283DFCE53F0749F1293DD6
:104D60004CE53407E9F1273D3C45C1F0FC01828167
:104D700081111092160381E019C0253FFCE53F0721
:104D800019F1263F4CE5340729F1243F3C4571F7E2
:104D900007E225EE44EE64EF7CE505C006E221EE75
:104DA00041EE67ED7CE50E94342680E00F91089586
:104DB00007E225EE45EE68ED7CE5F5CF06E221EE53
:104DC00040EE63EF7CE5EFCF06E221EE42EE65EFC9
:104DD0007CE5E9CF07E225EE46EE66EF7CE5E3CF22
:104DE00008E221E045EE69ED7CE5DDCF9093EF012F
:104DF0008093EE01089590931C0380931B03089504
:104E0000E0911B03F0911C03309729F00190F08191
:104E1000E02D0995089580E00895E0911B03F0913D
:104E20001C03309721F00280F381E02D099508954D
:104E3000DC01E0911B03F0911C03309739F082E014
:104E40008C930480F581E02DCD0109950895209182
:104E5000190330911A032817390771F090931A0338
:104E600080931903E0911B03F0911C03309721F00C
:104E70000680F781E02D0995089520911703309160
:104E800018032817390771F09093180380931703BC
:104E9000E0911B03F0911C03309721F00084F18511
:104EA000E02D099508959C01AC014E5F5F4F285F8E
:104EB0003F4F80E0FA0190814F5F5F4F91118F5F0C
:104EC00024173507B9F708959C01662351F0FC01BA
:104ED0003296285F3F4F8191861729F0E217F3073A
:104EE000D1F780E0089581E008959C01FC0132969D
:104EF0008FEF90E04191461751F08F3F19F4411127
:104F000001C0892F9F5F9630A9F78F3F09F408955C
:104F1000280F311D87FD3A95F901628308959C01A0
:104F2000FC013296285F3F4F8191861303C0DF0159
:104F300011971C92E217F307B9F708950E9475279D
:104F400008950E948F270895FC01329686E0DF01C4
:104F50001D928A95E9F7089546E050E00E947C3161
:104F60009C0181E0232B09F480E0089508950E94BC
:104F7000B62708958F5F80931D030E94B727089579
:104F800083E080931D030E94B72708950E94BA27EB
:104F9000089581E080931D030E94B72708950E9421
:104FA000C9270895089508950E94D3270895089564
:104FB00008950E94D2270895CF930E94D7270E9478
:104FC000C7130E94D827C0E08C2F0E94AA1381111A
:104FD00005C0CF5FCA30C1F7CF91089581E0FCCF03
:104FE00085B7806885BF85B7806885BF08951F92A3
:104FF0001FB61F9211248F939F93AF93BF938091FD
:105000001E03811113C08091910390919203A0918E
:105010009303B09194034196A11DB11D8093910318
:1050200090939203A0939303B0939403BF91AF9195
:105030009F918F911F901FBE1F901895809199038B
:10504000843031F10E94BD0610921E0388E190E089
:1050500020E40FB6F894A895809360000FBE2093CB
:10506000600083B7817F846083BF83B7816083BF23
:105070007894889583B78E7F83BF0FB6F894A895F0
:1050800080916000886180936000109260000FBE84
:1050900008950E94B50A0E94C206089582E084BD68
:1050A00093E095BD9AEF97BD80936E0008952FB75A
:1050B000F8948091910390919203A0919303B09101
:1050C00094032FBF0895A4E0B0E0E9E6F8E20C9461
:1050D000EC308FB7F8942091910330919203409176
:1050E00093035091940329833A834B835C838FBF4E
:1050F00069817A818B819C812496E2E00C9408314D
:105100009C014FB7F8948091910390919203A091E4
:105110009303B09194034FBF821B930B089578942F
:105120001F921FB61F9211248F939F93AF93BF932B
:105130008091910390919203A0919303B091940375
:105140000196A11DB11D8093910390939203A093AA
:105150009303B0939403BF91AF919F918F911F9050
:105160001FBE1F90189587E797E7909301088093DB
:10517000000888E19AE00FB6F894A8958093600043
:105180000FBE90936000FFCF88E19AE00FB6F894CD
:10519000A895809360000FBE90936000FFCF809130
:1051A0002A030895089524E02093E9002FEF309119
:1051B000E80035FD07C035ED3A95F1F700002150C4
:1051C0002111F5CF2091E80025FF0BC040E050E011
:1051D00066E070E00E94692B8091E8008E778093F2
:1051E000E8000895CF93DF93D82FC92F81E08093F3
:1051F000E9008FEF9091E80095FD07C095ED9A9535
:10520000F1F7000081508111F5CF8091E80085FD14
:1052100003C0DF91CF91089540E050E068E070E076
:105220008D2F9C2F0E94692B8091E8008E778093B0
:10523000E80088E0ED2FFC2FA2E2B3E001900D9290
:105240008A95E1F7E6CF80931F0370932103609363
:105250002003809199038430F9F48093E9008FEF63
:105260009091E80095FD07C095ED9A95F1F7000043
:1052700081508111F5CF8091E80085FF0DC040E09D
:1052800050E063E070E08FE193E00E94692B809131
:10529000E8008E778093E8000895BC0184E00E94C6
:1052A00023290895BC0183E00E9423290895CF9308
:1052B000603211F5209199032430F1F42091E90036
:1052C000C091EC00C795CC27C7952F70C22B22E068
:1052D0002093E9002091E80020FF0BC040E050E05F
:1052E00060E270E00E94692B8091E8008E778093E5
:1052F000E800CF70C093E900CF91089580919803A2
:10530000811109C00E94402D0E949D2D8091E200D4
:1053100084608093E20008951092980308950E949B
:10532000C92708956091950381E0611101C080E073
:105330000E94C02708959091990381E0943009F06C
:1053400080E0609195030E94C627089542E061ECD9
:1053500081E00E94BC2C42E261EC84E00E94BC2C03
:1053600042E261EC82E00E94BC2C42E260EC83E00D
:105370000E94BC2C9091990381E0943009F080E068
:10538000609195030E94BA27089580919B0389300C
:1053900089F148F4823009F4A1C0833009F45BC07C
:1053A000813041F008958A3009F488C08B3009F4C7
:1053B0006DC0089580919A03813A09F04BC08091A5
:1053C000E800877F8093E80080919E0390919F037F
:1053D000892B61F060E080E090E070E00E94072C93
:1053E0008091E8008B778093E800089568E082E27E
:1053F00093E0F3CF80919A03813261F580919E030F
:1054000090919F038D7F892B29F58091E800877FFC
:105410008093E8008091E80082FF18C09091F3002B
:105420008091F200029731F48091F100813011F007
:10543000863021F48091F10080932A038091E80066
:105440008B778093E8000E94F02C04C08091990330
:105450008111E0CF089580919A03813AD9F7809124
:105460009E0390919F03892BA9F78091E800877F85
:105470008093E8008091E80080FFFCCF80912D01AF
:105480008093F1008091E8008E77DBCF80919A03C2
:10549000813201F780919E0390919F03892BD1F671
:1054A0008091E800877F8093E8000E94F02C809133
:1054B0009C0380932D010E94B50A089580919A0360
:1054C000813241F68091E800877F8093E8000E9456
:1054D000F02C80919D0380932B03089580919A0373
:1054E000813A09F0B7CF8091E800877F8093E80088
:1054F0008091E80080FFFCCF80912B03C1CF84B75F
:10550000877F84BF0FB6F894A8958091600088616A
:1055100080936000109260000FBE80E890E00FB6AC
:10552000F89480936100909361000FBE0E94CF2792
:1055300008950E94402D0E949D2DE2EEF0E08081B2
:105540008460808378940E942030089581E291E005
:105550000E94FB26089580919903853031F4809153
:105560009903853019F00E94492808950E941E2849
:1055700080919703882399F30E94DC27882379F38D
:105580000E94532B0E94B50AEACFA0E2B0E0EBECF8
:10559000FAE20C94EC3080919903843081F483E03A
:1055A0008093E9008091E80082FF09C08091E800C3
:1055B00085FD09C08091E8008B778093E800A09674
:1055C000E2E00C94083140E050E060E270E0CE018F
:1055D00001960E94B82B8091E8008B778093E800B9
:1055E00060E2CE0101960E949C20E9CF0E94F92A38
:1055F0000895FC01CB01DA012F2F33272330310529
:1056000021F168F42130310509F443C0223031051D
:1056100009F444C080E090E020E030E024C0213272
:10562000310551F122323105A9F76330710590F748
:10563000FB01EE0FFF1FEF51FE4F2081318182529F
:105640009E4FFC01808190E00EC0CF019927E13090
:1056500069F08230910569F0E4EEF5E0892BD1F62E
:10566000849190E09F012D933C930895ECECF5E03C
:10567000F7CFEEEBF5E0F4CF6330710558F6FB01A0
:10568000EE0FFF1FE951FE4F2081318189E090E04C
:10569000EACF82E190E023E436E0E5CF8BE590E0CD
:1056A00028EE35E0E0CF80E189BD82E189BD09B413
:1056B00000FEFDCF8091D8008F7D8093D80080912F
:1056C000E00082608093E0008091E00081FDFCCFEB
:1056D0000895AF92BF92CF92DF92FF920F931F93E4
:1056E000CF93DF936C01EB018A010E940F2DF82EFE
:1056F000811123C00115110539F0F80180819181D4
:10570000C81BD90BC80ED91EA12CB12C2097A9F00B
:105710008091E80085FD22C08091E8008E7780931B
:10572000E80001151105A1F0F801808191818A0D31
:105730009B1D9183808385E0F82E8F2DDF91CF9183
:105740001F910F91FF90DF90CF90BF90AF90089581
:105750000E940F2D8823E1F2F82EEFCFF601819100
:105760006F018093F1002197FFEFAF1ABF0ACECFF0
:10577000AF92BF92CF92DF92FF920F931F93CF937E
:10578000DF936C01EB018A010E940F2DF82E81112D
:1057900023C00115110539F0F80180819181C81BE2
:1057A000D90BC80ED91EA12CB12C2097A9F080913D
:1057B000E80085FD22C08091E8008B778093E800A7
:1057C00001151105A1F0F801808191818A0D9B1DC1
:1057D0009183808385E0F82E8F2DDF91CF911F91EB
:1057E0000F91FF90DF90CF90BF90AF9008950E94EF
:1057F0000F2D8823E1F2F82EEFCF8091F100F60112
:1058000081936F012197FFEFAF1ABF0ACECFFC0142
:105810009B018091A0039091A1038617970718F030
:10582000672B61F0C90140E0009771F441110CC091
:105830008091E80082FF35C080E008958091E80003
:105840008E778093E800EECF209199032223A9F16F
:105850002530A9F12091E80023FD2DC02091E8001A
:1058600022FDE6CF2091E80020FFDECF3091F3004B
:105870002091F200009719F02830310558F041E0EE
:105880002830310509F040E02091E8002E77209380
:10589000E800CACF41914093F10001972F5F3F4F3D
:1058A000E9CF80919903882341F0853041F08091C0
:1058B000E80083FFBDCF81E0089582E0089583E092
:1058C0000895FC019B018091A0039091A10386178C
:1058D000970718F0672B61F0C90140E0009771F459
:1058E00041110CC08091E80082FF36C080E008952D
:1058F0008091E8008E778093E800EECF20919903A5
:105900002223B1F12530B1F12091E80023FD2EC012
:105910002091E80022FDE6CF2091E80020FFDECFB5
:105920003091F3002091F200009719F028303105F2
:1059300058F041E02830310509F040E02091E800BE
:105940002E772093E800CACF44914093F10031961E
:1059500001972F5F3F4FE8CF80919903882341F053
:10596000853041F08091E80083FFBCCF81E008954D
:1059700082E0089583E00895982F973028F08F7083
:105980008093E90081E008959093E900242F762F19
:1059900050E0981731F07091EC002091ED0050919B
:1059A000F00021FD02C09F5FE8CF3091EB003E7F09
:1059B0003093EB003091ED003D7F3093ED0030915E
:1059C000EB0031603093EB007093EC002093ED001E
:1059D0005093F0002091EE0027FDE5CF80E0089580
:1059E00080919A0387FF13C08091E80082FF06C070
:1059F0008091E8008B778093E80004C08091990340
:105A00008111F2CF0895809199038823D9F3809171
:105A1000E80080FFF8CF8091E8008E77ECCF2091EE
:105A2000E4003091E50095E6A9018091EC008170D9
:105A3000882331F08091E80080FF06C080E008955F
:105A40002091E80022FD1BC080919903882391F0EA
:105A5000853091F08091EB0085FD10C02091E4002D
:105A60003091E5004217530701F391509111DCCFBB
:105A700084E0089582E0089583E0089581E0089528
:105A80000E94AF2D0E94B72DE0EEF0E08081816092
:105A90008083E8EDF0E080818F77808319BCA7EDEB
:105AA000B0E08C918E7F8C9380818F7E808310926A
:105AB000980308950F931F93CF93DF930E94AF2D08
:105AC0000E94B72DC8EDD0E088818F7788838881C8
:105AD0008068888388818F7D888319BC10929903A0
